:020000040000FA
:100000000C9452020C947A020C947A020C947A02A8
:100010000C947A020C947A020C947A020C947A0270
:100020000C947A020C947A020C947A020C947A0260
:100030000C947A020C947A020C947A020C947A0250
:100040000C94DC050C947A020C944C060C94260655
:100050000C947A020C947A020C947A020C947A0230
:100060000C947A020C947A02E103BA00AF008B017F
:10007000B3010C000E001B015801BE010701310045
:10008000BB002F012900370127002B015500560026
:100090004F01E9001F0194013400710078006B01E9
:1000A000D2013A004D00BD00C200C30038010A0170
:1000B0002D019E01B100EF00A400A9001C01A101C7
:1000C000C000D4016E00FB009B019D002C01C80004
:1000D000800048016A01F3013F00DE00D701DC0126
:1000E000DD012D0060006600BE00D400150178011E
:1000F0008E01E80192001401A3013B0094009700D7
:10010000AB00400068019300D001D80036013C01EB
:10011000C90199000B0033003B010901E101AD0069
:10012000FD00C7016700C301B800AE00D801EC01B3
:100130002C00FF009C01B9007F018001E3007300E7
:10014000F200A801F40060016B009A00D700E400FF
:1001500085012E00D5004C016F0008018201B80115
:100160007F00C2015E0088000100AF0179011D011E
:10017000AD01F101E600D5011E0183015C007301B0
:10018000E00089018A016D00F8004501E8002F00B8
:10019000110134019701EB0154014A003E01920123
:1001A0006701B4010D017C000E0125013D008101B4
:1001B0009A01B501A200020024008A008D010F00FF
:1001C000CC0018019E00CF01C001EC0065010201C6
:1001D000720140016E0175018700FE004A018F0126
:1001E0003501080030003800EA018D004301B201FA
:1001F000F50049017001B0004E00E2018600500098
:100200008B0025002A003C00D60033015C01E3018D
:10021000170077008C00F1001301200151016D01DE
:10022000D9010300070044005B0062009B00BF008F
:10023000C600170124012A019801060009001200D6
:1002400018005F008F009100A600A800C900EE0012
:10025000F600F900FA00270129014D0155019D0121
:10026000A001C101D601DA01E401E60119001F0075
:100270003900470089009F00CB00E50005012101FE
:10028000260166018601E501260042005900A7000B
:10029000AA00CA00EA0000013D019001A201BA01D2
:1002A00005007200C700D10044017D018401BC013A
:1002B000C4014C0070007D009500AC00D200AB0181
:1002C000E0010A00B600AE010D0048002301410123
:1002D0003200690075009C003E00EB00BD0110007B
:1002E0001601E901AA01DC00C40052012200350018
:1002F0001B00460039010F018400D900DA006901B2
:10030000AC01E7013A01B901F00030015F01C5001D
:10031000C501C6015A01B200B30064007B017B0035
:10032000EE018E00E10071014B00B60196014F0015
:1003300047017C01A50046018801C1006201570008
:10034000560145005400CD001A002100D000F700EE
:10035000A601DE01110014001C00430006015B0130
:1003600061017701A5012300DD00030104013101D2
:100370005301740195015A0068007A00E2001A01E5
:100380004E016C01A701CA011E00650010017E012B
:10039000870198009F01B101040049000101B700E5
:1003A000F30091019301A9018200ED00B400D10195
:1003B000C801ED0151008C0136007400B0018300CA
:1003C000B701A100F0015701D301DB01760115004F
:1003D000280159013F016F01630081006100E700BE
:1003E000EF01D3000B0153008500B5001201BF01DE
:1003F00052005D016C0076005E01BB01F2016A00F3
:100400007E00CE00FC0032019600BC002E0164018B
:1004100022014B01CD01DF010000A40137001901C9
:100420004201CF000C01130063012800CC0116002B
:1004300020005800DF007A019901A300CB01790068
:10044000DB005001CE011D009000A00041002B00F8
:1004500000000000240027002A000000000800021D
:10046000010000030407000000000000000001027A
:100470000408102040800102040810200102040832
:10048000102000000000250028002B0004040404B4
:10049000040404040202020202020303030303032E
:1004A0007E06290811241FBECFEFD8E0DEBFCDBFE6
:1004B00011E0A0E0B1E0EEE4F3E102C005900D929E
:1004C000A032B107D9F721E0A0E2B1E001C01D924E
:1004D000A03EB207E1F712E0C1E5D2E004C02197E7
:1004E000FE010E946F08C035D107C9F70E94260798
:1004F0000C949A090C94000090E0FC01E65AFB4F22
:100500002491FC01E259FB4F3491FC01E457FB4F6D
:10051000E491EE23B9F0222339F02330F1F098F47E
:10052000213009F1223019F1F0E0EE0FFF1FEE57F4
:10053000FB4FA591B4918FB7F894EC9130953E2381
:100540003C938FBF08952730A9F02830C9F024309C
:1005500059F7809180008F7D03C0809180008F7754
:1005600080938000E1CF84B58F7784BDDDCF84B5E3
:100570008F7DFBCF8091B0008F778093B000D4CF78
:100580008091B0008F7DF9CF8F929F92AF92BF92F2
:10059000CF92DF92EF92FF920F931F93FC014B01DA
:1005A000AA24BB24C52ED62EE72EFF24BC2DA42FB3
:1005B0009091CE01B82C992391F0A92FB0E0A89D7D
:1005C0009001A99D300DB89D300D1124B32E9C9D36
:1005D00060011124BD2D949F80011124A12F409111
:1005E000D4012091CF013091D0018091D1014813E5
:1005F00024C0CF01880F991F8E0F9F1F820F931F5A
:10060000E091D101E80FF92FF11DB082E091D20104
:10061000E80FF92FF11DB0832091D301820F911DB6
:10062000FC01A0831F910F91FF90EF90DF90CF907E
:10063000BF90AF909F908F900895CF01880F991F22
:10064000880F991F820F931FFC01E40FF11D108288
:10065000D7CFCF93DF9390E0FC01E259FB4F249179
:1006600084579B4FFC0184918823D1F090E0880F40
:10067000991FFC01E05BFB4FA591B491FC01EE5783
:10068000FB4FC591D49161110EC09FB7F8948C9126
:10069000E22FE0958E238C932881E223E8839FBF8D
:1006A000DF91CF9108958FB7F894EC91E22BEC9302
:1006B0008FBFF6CFAF92BF92CF92DF92EF92FF92B1
:1006C0000F931F93CF93DF936C017B018B01040F7A
:1006D000151FEB015E01AE18BF08C017D10759F016
:1006E0006991D601ED91FC910190F081E02DC60158
:1006F0000995892B79F7C501DF91CF911F910F9152
:10070000FF90EF90DF90CF90BF90AF900895FC01E5
:10071000538D448D252F30E0842F90E0821B930B66
:10072000541710F0CF96089501970895FC01918D0C
:10073000828D981761F0A28DAE0FBF2FB11D5D960F
:100740008C91928D9F5F9F73928F90E008958FEFB1
:100750009FEF0895FC01918D828D981731F0828D65
:10076000E80FF11D858D90E008958FEF9FEF0895BC
:10077000FC01918D228D892F90E0805C9F4F821B20
:1007800091098F739927089589E291E00E94B80337
:1007900021E0892B09F420E0822F089580E090E089
:1007A000892B29F00E94C40381110C940000089544
:1007B000FC01A48DA80FB92FB11DA35ABF4F2C91D6
:1007C000848D90E001968F739927848FA689B789CD
:1007D0002C93A089B1898C91837080648C93938DC4
:1007E000848D981306C00288F389E02D80818F7D67
:1007F00080830895EF92FF920F931F93CF93DF931F
:10080000EC0181E0888F9B8D8C8D98131AC0E8894C
:10081000F989808185FF15C09FB7F894EE89FF891B
:100820006083E889F98980818370806480839FBFB9
:1008300081E090E0DF91CF911F910F91FF90EF90B9
:100840000895F62E0B8D10E00F5F1F4F0F731127C9
:10085000E02E8C8D8E110CC00FB607FCFACFE88904
:10086000F989808185FFF5CFCE010E94D803F1CFB1
:10087000EB8DEC0FFD2FF11DE35AFF4FF0829FB778
:10088000F8940B8FEA89FB8980818062CFCFCF9368
:10089000DF93EC01888D8823B9F0AA89BB89E889A8
:1008A000F9898C9185FD03C0808186FD0DC00FB64E
:1008B00007FCF7CF8C9185FFF2CF808185FFEDCFCC
:1008C000CE010E94D803E9CFDF91CF910895FC01BA
:1008D00001900020E9F73197AF01481B590BBC018B
:1008E00089E291E00C945A034F925F926F927F924B
:1008F0009F92AF92BF92CF92DF92EF92FF920F93AF
:100900001F93CF93DF93CDB7DEB7A5970FB6F894BB
:10091000DEBF0FBECDBF88E191E00E9467048CE18D
:1009200091E00E946704B12CA12C8091C8019091A4
:10093000C90120E030E0A901A816B90608F069C095
:100940009091D401E091D101A091CF01B091D0015B
:10095000C090CE01692F70E04091D20150E08091AB
:10096000D301282F30E09E13A0C0C501880F991F26
:100970008A0D9B1D8A0F9B1F680F791FDB016C91ED
:10098000480F591FFA01F080820F931FDC010C9170
:10099000CC2009F47FC04C2C512C712C612C70E0C0
:1009A000762F6627072E000C880B990BA301920166
:1009B0000E944D08D901992788278AA39BA3ACA33D
:1009C000BDA36F2D70E0762F6627072E000C880BD5
:1009D000990BA30192010E944D08CC24D22EE32E44
:1009E000F42E8AA19BA1ACA1BDA1C82AD92AEA2ACA
:1009F000FB2A602F70E0762F6627072E000C880BED
:100A0000990BA30192010E944D082C293D294E29E2
:100A10005F2919A28E010F5D1F4FCA01B9012AE09B
:100A200030E040E050E00E944D08605DD8016E93D8
:100A30008D01211531054105510579F7109719F000
:100A4000CD010E9467048EE191E00E9467048CE171
:100A500091E00E946704BFEFAB1ABB0AE4EFAE1649
:100A6000E1E0BE0609F061CFA5960FB6F894DEBFAF
:100A70000FBECDBFDF91CF911F910F91FF90EF90EF
:100A8000DF90CF90BF90AF909F907F906F905F90DE
:100A90004F9008952F2D30E050E040E0542F432F29
:100AA000322F2227462B202BB4CFC501880F991F48
:100AB000880F991F8A0F9B1F680F791FDB016C91AC
:100AC000E80FF92FF11D1081480F591FFA0190808E
:100AD000820F931FDC010C91CC2009F462C0D12C51
:100AE000F12CE12C70E0762F6627072E000C880B86
:100AF000990BA70196010E944D08B22FAA279927AA
:100B000088278AA39BA3ACA3BDA3612F70E0762F97
:100B10006627072E000C880B990BA70196010E94EF
:100B20004D08A901332722278AA19BA1ACA1BDA111
:100B3000822B932BA42BB52B8AA39BA3ACA3BDA381
:100B4000602F70E0762F6627072E000C880B990B1C
:100B5000A70196010E944D088AA19BA1ACA1BDA14D
:100B6000822B932BA42BB52B8AA39BA3ACA3BDA351
:100B7000692D70E0762F6627072E000C880B990BE5
:100B8000A70196010E944D08542F432F322F222790
:100B90008AA19BA1ACA1BDA1282B392B4A2B5B2B91
:100BA00038CF212F30E050E040E0A9013327222741
:100BB000562B202B39292DCF1F920F920FB60F9253
:100BC00011242F933F938F939F93AF93BF93809163
:100BD000250190912601A0912701B0912801309123
:100BE000240123E0230F2D3758F50196A11DB11DD7
:100BF000209324018093250190932601A09327013F
:100C0000B09328018091200190912101A0912201AF
:100C1000B09123010196A11DB11D809320019093F5
:100C20002101A0932201B0932301BF91AF919F9125
:100C30008F913F912F910F900FBE0F901F9018959D
:100C400026E8230F0296A11DB11DD2CF1F920F924D
:100C50000FB60F9211242F933F934F935F936F938F
:100C60007F938F939F93AF93BF93EF93FF9389E20B
:100C700091E00E94D803FF91EF91BF91AF919F91B6
:100C80008F917F916F915F914F913F912F910F9035
:100C90000FBE0F901F9018951F920F920FB60F92D4
:100CA00011242F938F939F93EF93FF93E09139013A
:100CB000F0913A018081E0913F01F091400182FD85
:100CC0001BC09081809142018F5F8F7320914301FF
:100CD000821741F0E0914201F0E0E75DFE4F958F11
:100CE00080934201FF91EF919F918F912F910F90EF
:100CF0000FBE0F901F9018958081F4CFCF93DF9394
:100D000010922C0110922B0188EE93E0A0E0B0E04D
:100D100080932D0190932E01A0932F01B093300169
:100D20008AE091E090932A018093290185EC90E07C
:100D3000909336018093350184EC90E090933801D4
:100D40008093370180EC90E090933A0180933901D1
:100D500081EC90E090933C0180933B0182EC90E029
:100D600090933E0180933D0186EC90E0909340018A
:100D700080933F011092420110924301109244016E
:100D8000109245011092C7011092CE011092D50128
:100D90001092D6011092D7011092D80181E0809371
:100DA000D4018093D1011092D20192E09093D301AB
:100DB0008093C601CCEDD5E0D093CB01C093CA019E
:100DC0008CED95E00E9475089093D0018093CF013F
:100DD000009799F1FC019E01119221503040E1F7FA
:100DE00084EF91E09093C9018093C80188E090E07E
:100DF0009093CD018093CC018091C701882339F075
:100E000061E088E00E94290388E00E947C02E4E916
:100E1000F4E0E491F0E0EE0FFF1FEE57FB4F8591F9
:100E200094919093DA018093D901E6E7F4E0E4919C
:100E3000E093DB01DF91CF9108951092CB011092E6
:100E4000CA011092C9011092C801D0CF789484B51C
:100E5000826084BD84B5816084BD85B5826085BDB6
:100E600085B5816085BD80916E00816080936E0044
:100E70001092810080918100826080938100809136
:100E800081008160809381008091800081608093E7
:100E900080008091B10084608093B1008091B000A7
:100EA00081608093B00080917A00846080937A00A2
:100EB00080917A00826080937A0080917A008160CC
:100EC00080937A0080917A00806880937A001092F3
:100ED000C100E0913901F0913A0182E08083E09114
:100EE0003501F09136011082E0913701F09138011F
:100EF0008FEC808310924101E0913D01F0913E0121
:100F000086E08083E0913B01F0913C01808180612B
:100F10008083E0913B01F0913C0180818860808377
:100F2000E0913B01F0913C01808180688083E091F9
:100F30003B01F0913C0180818F7D80838091CC01C9
:100F40009091CD0197FD2DC061E00E942903809111
:100F5000CC010E947C0281E08093C7016091CE01A8
:100F6000693C41F12091CF013091D0016150E1F015
:100F700070E08FEF98EC0E943908F9014091CA01A6
:100F80005091CB01CF01821B930B8417950778F406
:100F90004081469FC001479F900D11249083319658
:100FA000EDCF1092C701DACF70E060E0E6CF89ECB8
:100FB0008093CE010E94740480E0E82E80E0F82E39
:100FC000C8E6D0E08E01F801859194912091C80186
:100FD0003091C9018217930730F44FEF5FEF60E063
:100FE00070E00E94C4020E9474048FE39CE90197A0
:100FF000F1F700C000000E5F1F4F94E000351907A5
:1010000011F7FE01859194912091C8013091C90199
:101010008217930728F44FEF50E0BA010E94C402F0
:101020000E9474048FE39CE90197F1F700C000006F
:10103000229694E0C035D90721F7E114F10409F4B0
:10104000BFCF0E94C403882309F4BACF0E940000D6
:10105000B7CF8091CF019091D0010E94110980916A
:10106000CC019091CD0197FD03C060E00C94290361
:101070000895AA1BBB1B51E107C0AA1FBB1FA617DF
:10108000B70710F0A61BB70B881F991F5A95A9F731
:1010900080959095BC01CD010895A1E21A2EAA1B5E
:1010A000BB1BFD010DC0AA1FBB1FEE1FFF1FA21718
:1010B000B307E407F50720F0A21BB30BE40BF50B15
:1010C000661F771F881F991F1A9469F7609570959E
:1010D000809590959B01AC01BD01CF010895EE0F65
:1010E000FF1F0590F491E02D09940F931F93CF9368
:1010F000DF938230910510F482E090E0E091DE0110
:10110000F091DF0130E020E0B0E0A0E0309799F40A
:101110002115310509F44AC0281B390B243031054B
:10112000D8F58A819B816115710589F1FB01938353
:101130008283FE0111C040815181028113814817D1
:101140005907E0F04817590799F4109761F0129683
:101150000C93129713961C933296CF01DF91CF9187
:101160001F910F9108950093DE011093DF01F4CFDA
:101170002115310551F04217530738F0A901DB0161
:101180009A01BD01DF01F801C1CFEF01F9CF9093C2
:10119000DF018093DE01CDCFFE01E20FF31F8193CB
:1011A00091932250310939832883D7CF2091DC01D4
:1011B0003091DD01232B41F4209102013091030194
:1011C0003093DD012093DC01209100013091010179
:1011D0002115310541F42DB73EB7409104015091DE
:1011E0000501241B350BE091DC01F091DD01E217D4
:1011F000F307A0F42E1B3F0B2817390778F0AC013A
:101200004E5F5F4F2417350748F04E0F5F1F509316
:10121000DD014093DC01819391939FCFF0E0E0E00A
:101220009CCFCF93DF930097E9F0FC0132971382B4
:101230001282A091DE01B091DF01ED0130E020E0EB
:101240001097A1F420813181820F931F2091DC013E
:101250003091DD012817390709F061C0F093DD01F5
:10126000E093DC01DF91CF910895EA01CE17DF070B
:10127000E8F54A815B819E0141155105B1F7E9010D
:10128000FB83EA8349915991C40FD51FEC17FD07E1
:1012900061F4808191810296840F951FE901998301
:1012A0008883828193819B838A83F0E0E0E01296B9
:1012B0008D919C9113970097B9F52D913C911197C1
:1012C000CD010296820F931F2091DC013091DD0148
:1012D0002817390739F6309751F51092DF0110922F
:1012E000DE01B093DD01A093DC01BCCFD383C283C8
:1012F00040815181840F951FC817D90761F44E5F53
:101300005F4F88819981480F591F518340838A819B
:101310009B81938382832115310509F0B0CFF0932F
:10132000DF01E093DE019ECFFD01DC01C0CF13821F
:101330001282D7CF12E0C1E5D2E004C0FE010E94C4
:101340006F082196C235D107C9F7F894FFCF000086
:10135000E001800000000000FA035A0387034704FD
:0E136000B8039603AA032D2D2D000D0A0000E0
:107E0000112484B714BE81FFF0D085E080938100F7
:107E100082E08093C00088E18093C10086E0809377
:107E2000C20080E18093C4008EE0C9D0259A86E02C
:107E300020E33CEF91E0309385002093840096BBD3
:107E4000B09BFECF1D9AA8958150A9F7CC24DD24C4
:107E500088248394B5E0AB2EA1E19A2EF3E0BF2EE7
:107E6000A2D0813461F49FD0082FAFD0023811F036
:107E7000013811F484E001C083E08DD089C08234E0
:107E800011F484E103C0853419F485E0A6D080C0E4
:107E9000853579F488D0E82EFF2485D0082F10E0AE
:107EA000102F00270E291F29000F111F8ED06801E7
:107EB0006FC0863521F484E090D080E0DECF843638
:107EC00009F040C070D06FD0082F6DD080E0C81688
:107ED00080E7D80618F4F601B7BEE895C0E0D1E017
:107EE00062D089930C17E1F7F0E0CF16F0E7DF06D8
:107EF00018F0F601B7BEE89568D007B600FCFDCFD4
:107F0000A601A0E0B1E02C9130E011968C91119780
:107F100090E0982F8827822B932B1296FA010C0160
:107F200087BEE89511244E5F5F4FF1E0A038BF0790
:107F300051F7F601A7BEE89507B600FCFDCF97BE46
:107F4000E89526C08437B1F42ED02DD0F82E2BD052
:107F50003CD0F601EF2C8F010F5F1F4F84911BD097
:107F6000EA94F801C1F70894C11CD11CFA94CF0C13
:107F7000D11C0EC0853739F428D08EE10CD085E9AC
:107F80000AD08FE07ACF813511F488E018D01DD067
:107F900080E101D065CF982F8091C00085FFFCCF94
:107FA0009093C60008958091C00087FFFCCF809118
:107FB000C00084FD01C0A8958091C6000895E0E648
:107FC000F0E098E1908380830895EDDF803219F02E
:107FD00088E0F5DFFFCF84E1DECF1F93182FE3DFCA
:107FE0001150E9F7F2DF1F91089580E0E8DFEE27F6
:047FF000FF270994CA
:027FFE00040479
:00000001FF
